{
  "_format": "hh-sol-artifact-1",
  "contractName": "AccessControl",
  "sourceName": "contracts/AccessControl.sol",
  "abi": [
    {
      "inputs": [
        {
          "internalType": "address",
          "name": "storageRegistryAddress",
          "type": "address"
        }
      ],
      "stateMutability": "nonpayable",
      "type": "constructor"
    },
    {
      "anonymous": false,
      "inputs": [
        {
          "indexed": true,
          "internalType": "address",
          "name": "owner",
          "type": "address"
        },
        {
          "indexed": false,
          "internalType": "string",
          "name": "cid",
          "type": "string"
        },
        {
          "indexed": true,
          "internalType": "address",
          "name": "accessor",
          "type": "address"
        }
      ],
      "name": "AccessGranted",
      "type": "event"
    },
    {
      "anonymous": false,
      "inputs": [
        {
          "indexed": true,
          "internalType": "address",
          "name": "owner",
          "type": "address"
        },
        {
          "indexed": false,
          "internalType": "string",
          "name": "cid",
          "type": "string"
        },
        {
          "indexed": true,
          "internalType": "address",
          "name": "accessor",
          "type": "address"
        }
      ],
      "name": "AccessRevoked",
      "type": "event"
    },
    {
      "inputs": [
        {
          "internalType": "address",
          "name": "owner",
          "type": "address"
        },
        {
          "internalType": "string",
          "name": "cid",
          "type": "string"
        }
      ],
      "name": "getFileAccessors",
      "outputs": [
        {
          "internalType": "address[]",
          "name": "",
          "type": "address[]"
        }
      ],
      "stateMutability": "view",
      "type": "function"
    },
    {
      "inputs": [
        {
          "internalType": "string",
          "name": "cid",
          "type": "string"
        },
        {
          "internalType": "address",
          "name": "accessor",
          "type": "address"
        }
      ],
      "name": "grantAccess",
      "outputs": [],
      "stateMutability": "nonpayable",
      "type": "function"
    },
    {
      "inputs": [
        {
          "internalType": "address",
          "name": "owner",
          "type": "address"
        },
        {
          "internalType": "string",
          "name": "cid",
          "type": "string"
        },
        {
          "internalType": "address",
          "name": "accessor",
          "type": "address"
        }
      ],
      "name": "hasAccess",
      "outputs": [
        {
          "internalType": "bool",
          "name": "",
          "type": "bool"
        }
      ],
      "stateMutability": "view",
      "type": "function"
    },
    {
      "inputs": [
        {
          "internalType": "string",
          "name": "cid",
          "type": "string"
        },
        {
          "internalType": "address",
          "name": "accessor",
          "type": "address"
        }
      ],
      "name": "revokeAccess",
      "outputs": [],
      "stateMutability": "nonpayable",
      "type": "function"
    },
    {
      "inputs": [],
      "name": "storageRegistry",
      "outputs": [
        {
          "internalType": "contract IStorageRegistry",
          "name": "",
          "type": "address"
        }
      ],
      "stateMutability": "view",
      "type": "function"
    }
  ],
  "bytecode": "0x608060405234801561001057600080fd5b50604051611ae6380380611ae68339818101604052810190610032919061014b565b600073ffffffffffffffffffffffffffffffffffffffff168173ffffffffffffffffffffffffffffffffffffffff16036100a1576040517f08c379a0000000000000000000000000000000000000000000000000000000008152600401610098906101d5565b60405180910390fd5b80600260006101000a81548173ffffffffffffffffffffffffffffffffffffffff021916908373ffffffffffffffffffffffffffffffffffffffff160217905550506101f5565b600080fd5b600073ffffffffffffffffffffffffffffffffffffffff82169050919050565b6000610118826100ed565b9050919050565b6101288161010d565b811461013357600080fd5b50565b6000815190506101458161011f565b92915050565b600060208284031215610161576101606100e8565b5b600061016f84828501610136565b91505092915050565b600082825260208201905092915050565b7f496e76616c69642053746f726167655265676973747279206164647265737300600082015250565b60006101bf601f83610178565b91506101ca82610189565b602082019050919050565b600060208201905081810360008301526101ee816101b2565b9050919050565b6118e2806102046000396000f3fe608060405234801561001057600080fd5b50600436106100575760003560e01c80632c94436f1461005c5780634cb32d371461008c5780634ec77b45146100bc578063dfe0b5fe146100da578063f37c215e146100f6575b600080fd5b61007660048036038101906100719190610e26565b610112565b6040516100839190610eb5565b60405180910390f35b6100a660048036038101906100a19190610ed0565b6101fb565b6040516100b39190610fee565b60405180910390f35b6100c46102e8565b6040516100d1919061106f565b60405180910390f35b6100f460048036038101906100ef919061108a565b61030e565b005b610110600480360381019061010b919061108a565b6106f5565b005b60008173ffffffffffffffffffffffffffffffffffffffff168573ffffffffffffffffffffffffffffffffffffffff1614806101f157506000808673ffffffffffffffffffffffffffffffffffffffff1673ffffffffffffffffffffffffffffffffffffffff1681526020019081526020016000208484604051610197929190611129565b908152602001604051809103902060008373ffffffffffffffffffffffffffffffffffffffff1673ffffffffffffffffffffffffffffffffffffffff16815260200190815260200160002060009054906101000a900460ff165b9050949350505050565b6060600160008573ffffffffffffffffffffffffffffffffffffffff1673ffffffffffffffffffffffffffffffffffffffff168152602001908152602001600020838360405161024c929190611129565b90815260200160405180910390208054806020026020016040519081016040528092919081815260200182805480156102da57602002820191906000526020600020905b8160009054906101000a900473ffffffffffffffffffffffffffffffffffffffff1673ffffffffffffffffffffffffffffffffffffffff1681526020019060010190808311610290575b505050505090509392505050565b600260009054906101000a900473ffffffffffffffffffffffffffffffffffffffff1681565b6000803373ffffffffffffffffffffffffffffffffffffffff1673ffffffffffffffffffffffffffffffffffffffff168152602001908152602001600020838360405161035c929190611129565b908152602001604051809103902060008273ffffffffffffffffffffffffffffffffffffffff1673ffffffffffffffffffffffffffffffffffffffff16815260200190815260200160002060009054906101000a900460ff166103f4576040517f08c379a00000000000000000000000000000000000000000000000000000000081526004016103eb9061119f565b60405180910390fd5b60008060003373ffffffffffffffffffffffffffffffffffffffff1673ffffffffffffffffffffffffffffffffffffffff1681526020019081526020016000208484604051610444929190611129565b908152602001604051809103902060008373ffffffffffffffffffffffffffffffffffffffff1673ffffffffffffffffffffffffffffffffffffffff16815260200190815260200160002060006101000a81548160ff0219169083151502179055506000600160003373ffffffffffffffffffffffffffffffffffffffff1673ffffffffffffffffffffffffffffffffffffffff16815260200190815260200160002084846040516104f7929190611129565b9081526020016040518091039020905060005b8180549050811015610687578273ffffffffffffffffffffffffffffffffffffffff168282815481106105405761053f6111bf565b5b9060005260206000200160009054906101000a900473ffffffffffffffffffffffffffffffffffffffff1673ffffffffffffffffffffffffffffffffffffffff160361067a5781600183805490506105989190611227565b815481106105a9576105a86111bf565b5b9060005260206000200160009054906101000a900473ffffffffffffffffffffffffffffffffffffffff168282815481106105e7576105e66111bf565b5b9060005260206000200160006101000a81548173ffffffffffffffffffffffffffffffffffffffff021916908373ffffffffffffffffffffffffffffffffffffffff160217905550818054806106405761063f61125b565b5b6001900381819060005260206000200160006101000a81549073ffffffffffffffffffffffffffffffffffffffff02191690559055610687565b808060010191505061050a565b508173ffffffffffffffffffffffffffffffffffffffff163373ffffffffffffffffffffffffffffffffffffffff167fa09219d7e8e0f494087bb0762109f3d8fa4bfc090a8a348a142cab14aa73e3f786866040516106e79291906112c8565b60405180910390a350505050565b600073ffffffffffffffffffffffffffffffffffffffff168173ffffffffffffffffffffffffffffffffffffffff1603610764576040517f08c379a000000000000000000000000000000000000000000000000000000000815260040161075b90611338565b60405180910390fd5b6107b33384848080601f016020809104026020016040519081016040528093929190818152602001838380828437600081840152601f19601f8201169050808301925050505050505083610b43565b156107f3576040517f08c379a00000000000000000000000000000000000000000000000000000000081526004016107ea906113a4565b60405180910390fd5b6000803373ffffffffffffffffffffffffffffffffffffffff1673ffffffffffffffffffffffffffffffffffffffff1681526020019081526020016000208383604051610841929190611129565b908152602001604051809103902060008273ffffffffffffffffffffffffffffffffffffffff1673ffffffffffffffffffffffffffffffffffffffff16815260200190815260200160002060009054906101000a900460ff16156108da576040517f08c379a00000000000000000000000000000000000000000000000000000000081526004016108d190611410565b60405180910390fd5b6109283384848080601f016020809104026020016040519081016040528093929190818152602001838380828437600081840152601f19601f82011690508083019250505050505050610c48565b610967576040517f08c379a000000000000000000000000000000000000000000000000000000000815260040161095e9061147c565b60405180910390fd5b60016000803373ffffffffffffffffffffffffffffffffffffffff1673ffffffffffffffffffffffffffffffffffffffff16815260200190815260200160002084846040516109b7929190611129565b908152602001604051809103902060008373ffffffffffffffffffffffffffffffffffffffff1673ffffffffffffffffffffffffffffffffffffffff16815260200190815260200160002060006101000a81548160ff021916908315150217905550600160003373ffffffffffffffffffffffffffffffffffffffff1673ffffffffffffffffffffffffffffffffffffffff1681526020019081526020016000208383604051610a68929190611129565b9081526020016040518091039020819080600181540180825580915050600190039060005260206000200160009091909190916101000a81548173ffffffffffffffffffffffffffffffffffffffff021916908373ffffffffffffffffffffffffffffffffffffffff1602179055508073ffffffffffffffffffffffffffffffffffffffff163373ffffffffffffffffffffffffffffffffffffffff167f1374c56ac5373755358f44713ae3c7f3c5bde84cb5d9bcbddf8c15b647ed34038585604051610b369291906112c8565b60405180910390a3505050565b600080600160008673ffffffffffffffffffffffffffffffffffffffff1673ffffffffffffffffffffffffffffffffffffffff16815260200190815260200160002084604051610b939190611502565b9081526020016040518091039020905060005b8180549050811015610c3a578373ffffffffffffffffffffffffffffffffffffffff16828281548110610bdc57610bdb6111bf565b5b9060005260206000200160009054906101000a900473ffffffffffffffffffffffffffffffffffffffff1673ffffffffffffffffffffffffffffffffffffffff1603610c2d57600192505050610c41565b8080600101915050610ba6565b5060009150505b9392505050565b600080600260009054906101000a900473ffffffffffffffffffffffffffffffffffffffff1673ffffffffffffffffffffffffffffffffffffffff16631fc37922856040518263ffffffff1660e01b8152600401610ca69190611528565b600060405180830381865afa158015610cc3573d6000803e3d6000fd5b505050506040513d6000823e3d601f19601f82011682018060405250810190610cec9190611834565b50905060005b8151811015610d42578380519060200120828281518110610d1657610d156111bf565b5b60200260200101518051906020012003610d3557600192505050610d49565b8080600101915050610cf2565b5060009150505b92915050565b6000604051905090565b600080fd5b600080fd5b600073ffffffffffffffffffffffffffffffffffffffff82169050919050565b6000610d8e82610d63565b9050919050565b610d9e81610d83565b8114610da957600080fd5b50565b600081359050610dbb81610d95565b92915050565b600080fd5b600080fd5b600080fd5b60008083601f840112610de657610de5610dc1565b5b8235905067ffffffffffffffff811115610e0357610e02610dc6565b5b602083019150836001820283011115610e1f57610e1e610dcb565b5b9250929050565b60008060008060608587031215610e4057610e3f610d59565b5b6000610e4e87828801610dac565b945050602085013567ffffffffffffffff811115610e6f57610e6e610d5e565b5b610e7b87828801610dd0565b93509350506040610e8e87828801610dac565b91505092959194509250565b60008115159050919050565b610eaf81610e9a565b82525050565b6000602082019050610eca6000830184610ea6565b92915050565b600080600060408486031215610ee957610ee8610d59565b5b6000610ef786828701610dac565b935050602084013567ffffffffffffffff811115610f1857610f17610d5e565b5b610f2486828701610dd0565b92509250509250925092565b600081519050919050565b600082825260208201905092915050565b6000819050602082019050919050565b610f6581610d83565b82525050565b6000610f778383610f5c565b60208301905092915050565b6000602082019050919050565b6000610f9b82610f30565b610fa58185610f3b565b9350610fb083610f4c565b8060005b83811015610fe1578151610fc88882610f6b565b9750610fd383610f83565b925050600181019050610fb4565b5085935050505092915050565b600060208201905081810360008301526110088184610f90565b905092915050565b6000819050919050565b600061103561103061102b84610d63565b611010565b610d63565b9050919050565b60006110478261101a565b9050919050565b60006110598261103c565b9050919050565b6110698161104e565b82525050565b60006020820190506110846000830184611060565b92915050565b6000806000604084860312156110a3576110a2610d59565b5b600084013567ffffffffffffffff8111156110c1576110c0610d5e565b5b6110cd86828701610dd0565b935093505060206110e086828701610dac565b9150509250925092565b600081905092915050565b82818337600083830152505050565b600061111083856110ea565b935061111d8385846110f5565b82840190509392505050565b6000611136828486611104565b91508190509392505050565b600082825260208201905092915050565b7f4e6f74206772616e746564000000000000000000000000000000000000000000600082015250565b6000611189600b83611142565b915061119482611153565b602082019050919050565b600060208201905081810360008301526111b88161117c565b9050919050565b7f4e487b7100000000000000000000000000000000000000000000000000000000600052603260045260246000fd5b6000819050919050565b7f4e487b7100000000000000000000000000000000000000000000000000000000600052601160045260246000fd5b6000611232826111ee565b915061123d836111ee565b9250828203905081811115611255576112546111f8565b5b92915050565b7f4e487b7100000000000000000000000000000000000000000000000000000000600052603160045260246000fd5b6000601f19601f8301169050919050565b60006112a78385611142565b93506112b48385846110f5565b6112bd8361128a565b840190509392505050565b600060208201905081810360008301526112e381848661129b565b90509392505050565b7f496e76616c6964206163636573736f7200000000000000000000000000000000600082015250565b6000611322601083611142565b915061132d826112ec565b602082019050919050565b6000602082019050818103600083015261135181611315565b9050919050565b7f4163636573736f7220616c726561647920696e206c6973740000000000000000600082015250565b600061138e601883611142565b915061139982611358565b602082019050919050565b600060208201905081810360008301526113bd81611381565b9050919050565b7f416c7265616479206772616e7465640000000000000000000000000000000000600082015250565b60006113fa600f83611142565b9150611405826113c4565b602082019050919050565b60006020820190508181036000830152611429816113ed565b9050919050565b7f43494420646f6573206e6f7420657869737420666f72206f776e657200000000600082015250565b6000611466601c83611142565b915061147182611430565b602082019050919050565b6000602082019050818103600083015261149581611459565b9050919050565b600081519050919050565b60005b838110156114c55780820151818401526020810190506114aa565b60008484015250505050565b60006114dc8261149c565b6114e681856110ea565b93506114f68185602086016114a7565b80840191505092915050565b600061150e82846114d1565b915081905092915050565b61152281610d83565b82525050565b600060208201905061153d6000830184611519565b92915050565b7f4e487b7100000000000000000000000000000000000000000000000000000000600052604160045260246000fd5b61157b8261128a565b810181811067ffffffffffffffff8211171561159a57611599611543565b5b80604052505050565b60006115ad610d4f565b90506115b98282611572565b919050565b600067ffffffffffffffff8211156115d9576115d8611543565b5b602082029050602081019050919050565b600080fd5b600067ffffffffffffffff82111561160a57611609611543565b5b6116138261128a565b9050602081019050919050565b600061163361162e846115ef565b6115a3565b90508281526020810184848401111561164f5761164e6115ea565b5b61165a8482856114a7565b509392505050565b600082601f83011261167757611676610dc1565b5b8151611687848260208601611620565b91505092915050565b60006116a361169e846115be565b6115a3565b905080838252602082019050602084028301858111156116c6576116c5610dcb565b5b835b8181101561170d57805167ffffffffffffffff8111156116eb576116ea610dc1565b5b8086016116f88982611662565b855260208501945050506020810190506116c8565b5050509392505050565b600082601f83011261172c5761172b610dc1565b5b815161173c848260208601611690565b91505092915050565b600067ffffffffffffffff8211156117605761175f611543565b5b602082029050602081019050919050565b61177a816111ee565b811461178557600080fd5b50565b60008151905061179781611771565b92915050565b60006117b06117ab84611745565b6115a3565b905080838252602082019050602084028301858111156117d3576117d2610dcb565b5b835b818110156117fc57806117e88882611788565b8452602084019350506020810190506117d5565b5050509392505050565b600082601f83011261181b5761181a610dc1565b5b815161182b84826020860161179d565b91505092915050565b6000806040838503121561184b5761184a610d59565b5b600083015167ffffffffffffffff81111561186957611868610d5e565b5b61187585828601611717565b925050602083015167ffffffffffffffff81111561189657611895610d5e565b5b6118a285828601611806565b915050925092905056fea26469706673582212202805fa132ca5d5d1eb979688cd35112e216480053cdbdffcdb363e7b7a6e318464736f6c634300081c0033",
  "linkReferences": {},
  "deployedLinkReferences": {}
}