{
  "_format": "hh-sol-artifact-1",
  "contractName": "AccessControl",
  "sourceName": "contracts/AccessControl.sol",
  "abi": [
    {
      "inputs": [
        {
          "internalType": "address",
          "name": "storageRegistryAddress",
          "type": "address"
        }
      ],
      "stateMutability": "nonpayable",
      "type": "constructor"
    },
    {
      "anonymous": false,
      "inputs": [
        {
          "indexed": true,
          "internalType": "address",
          "name": "owner",
          "type": "address"
        },
        {
          "indexed": false,
          "internalType": "string",
          "name": "cid",
          "type": "string"
        },
        {
          "indexed": true,
          "internalType": "address",
          "name": "accessor",
          "type": "address"
        }
      ],
      "name": "AccessGranted",
      "type": "event"
    },
    {
      "anonymous": false,
      "inputs": [
        {
          "indexed": true,
          "internalType": "address",
          "name": "owner",
          "type": "address"
        },
        {
          "indexed": false,
          "internalType": "string",
          "name": "cid",
          "type": "string"
        },
        {
          "indexed": true,
          "internalType": "address",
          "name": "accessor",
          "type": "address"
        }
      ],
      "name": "AccessRevoked",
      "type": "event"
    },
    {
      "anonymous": false,
      "inputs": [
        {
          "indexed": true,
          "internalType": "address",
          "name": "owner",
          "type": "address"
        },
        {
          "indexed": false,
          "internalType": "string",
          "name": "cid",
          "type": "string"
        },
        {
          "indexed": true,
          "internalType": "address",
          "name": "accessor",
          "type": "address"
        }
      ],
      "name": "EncryptedKeySet",
      "type": "event"
    },
    {
      "inputs": [
        {
          "internalType": "address",
          "name": "accessor",
          "type": "address"
        }
      ],
      "name": "getAccessibleFiles",
      "outputs": [
        {
          "components": [
            {
              "internalType": "address",
              "name": "owner",
              "type": "address"
            },
            {
              "internalType": "string",
              "name": "cid",
              "type": "string"
            }
          ],
          "internalType": "struct AccessControl.FileAccess[]",
          "name": "",
          "type": "tuple[]"
        }
      ],
      "stateMutability": "view",
      "type": "function"
    },
    {
      "inputs": [
        {
          "internalType": "address",
          "name": "owner",
          "type": "address"
        },
        {
          "internalType": "string",
          "name": "cid",
          "type": "string"
        }
      ],
      "name": "getEncryptedKey",
      "outputs": [
        {
          "internalType": "bytes",
          "name": "",
          "type": "bytes"
        }
      ],
      "stateMutability": "view",
      "type": "function"
    },
    {
      "inputs": [
        {
          "internalType": "address",
          "name": "owner",
          "type": "address"
        },
        {
          "internalType": "string",
          "name": "cid",
          "type": "string"
        }
      ],
      "name": "getFileAccessors",
      "outputs": [
        {
          "internalType": "address[]",
          "name": "",
          "type": "address[]"
        }
      ],
      "stateMutability": "view",
      "type": "function"
    },
    {
      "inputs": [
        {
          "internalType": "string",
          "name": "cid",
          "type": "string"
        },
        {
          "internalType": "address",
          "name": "accessor",
          "type": "address"
        },
        {
          "internalType": "bytes",
          "name": "encryptedKey",
          "type": "bytes"
        }
      ],
      "name": "grantAccessWithKey",
      "outputs": [],
      "stateMutability": "nonpayable",
      "type": "function"
    },
    {
      "inputs": [
        {
          "internalType": "address",
          "name": "owner",
          "type": "address"
        },
        {
          "internalType": "string",
          "name": "cid",
          "type": "string"
        },
        {
          "internalType": "address",
          "name": "accessor",
          "type": "address"
        }
      ],
      "name": "hasAccess",
      "outputs": [
        {
          "internalType": "bool",
          "name": "",
          "type": "bool"
        }
      ],
      "stateMutability": "view",
      "type": "function"
    },
    {
      "inputs": [
        {
          "internalType": "string",
          "name": "cid",
          "type": "string"
        },
        {
          "internalType": "address",
          "name": "accessor",
          "type": "address"
        }
      ],
      "name": "revokeAccess",
      "outputs": [],
      "stateMutability": "nonpayable",
      "type": "function"
    },
    {
      "inputs": [
        {
          "internalType": "string",
          "name": "cid",
          "type": "string"
        },
        {
          "internalType": "bytes",
          "name": "encryptedKey",
          "type": "bytes"
        }
      ],
      "name": "setOwnerEncryptedKey",
      "outputs": [],
      "stateMutability": "nonpayable",
      "type": "function"
    },
    {
      "inputs": [],
      "name": "storageRegistry",
      "outputs": [
        {
          "internalType": "contract IStorageRegistry",
          "name": "",
          "type": "address"
        }
      ],
      "stateMutability": "view",
      "type": "function"
    }
  ],
  "bytecode": "0x608060405234801561001057600080fd5b506040516132b63803806132b68339818101604052810190610032919061014b565b600073ffffffffffffffffffffffffffffffffffffffff168173ffffffffffffffffffffffffffffffffffffffff16036100a1576040517f08c379a0000000000000000000000000000000000000000000000000000000008152600401610098906101d5565b60405180910390fd5b80600460006101000a81548173ffffffffffffffffffffffffffffffffffffffff021916908373ffffffffffffffffffffffffffffffffffffffff160217905550506101f5565b600080fd5b600073ffffffffffffffffffffffffffffffffffffffff82169050919050565b6000610118826100ed565b9050919050565b6101288161010d565b811461013357600080fd5b50565b6000815190506101458161011f565b92915050565b600060208284031215610161576101606100e8565b5b600061016f84828501610136565b91505092915050565b600082825260208201905092915050565b7f496e76616c69642053746f726167655265676973747279206164647265737300600082015250565b60006101bf601f83610178565b91506101ca82610189565b602082019050919050565b600060208201905081810360008301526101ee816101b2565b9050919050565b6130b2806102046000396000f3fe608060405234801561001057600080fd5b50600436106100885760003560e01c80634ec77b451161005b5780634ec77b4514610139578063b34af17314610157578063dfe0b5fe14610187578063f9303a8e146101a357610088565b80632c35d4321461008d5780632c94436f146100bd57806348b90e73146100ed5780634cb32d3714610109575b600080fd5b6100a760048036038101906100a29190611ad2565b6101bf565b6040516100b49190611c9d565b60405180910390f35b6100d760048036038101906100d29190611d24565b610345565b6040516100e49190611db3565b60405180910390f35b61010760048036038101906101029190611e24565b61042e565b005b610123600480360381019061011e9190611eb9565b610b79565b6040516101309190611fc8565b60405180910390f35b610141610c66565b60405161014e9190612049565b60405180910390f35b610171600480360381019061016c9190611eb9565b610c8c565b60405161017e91906120b9565b60405180910390f35b6101a1600480360381019061019c91906120db565b610ed6565b005b6101bd60048036038101906101b8919061213b565b6115cd565b005b6060600360008373ffffffffffffffffffffffffffffffffffffffff1673ffffffffffffffffffffffffffffffffffffffff168152602001908152602001600020805480602002602001604051908101604052809291908181526020016000905b8282101561033a57838290600052602060002090600202016040518060400160405290816000820160009054906101000a900473ffffffffffffffffffffffffffffffffffffffff1673ffffffffffffffffffffffffffffffffffffffff1673ffffffffffffffffffffffffffffffffffffffff1681526020016001820180546102a9906121eb565b80601f01602080910402602001604051908101604052809291908181526020018280546102d5906121eb565b80156103225780601f106102f757610100808354040283529160200191610322565b820191906000526020600020905b81548152906001019060200180831161030557829003601f168201915b50505050508152505081526020019060010190610220565b505050509050919050565b60008173ffffffffffffffffffffffffffffffffffffffff168573ffffffffffffffffffffffffffffffffffffffff16148061042457506000808673ffffffffffffffffffffffffffffffffffffffff1673ffffffffffffffffffffffffffffffffffffffff16815260200190815260200160002084846040516103ca92919061225b565b908152602001604051809103902060008373ffffffffffffffffffffffffffffffffffffffff1673ffffffffffffffffffffffffffffffffffffffff16815260200190815260200160002060009054906101000a900460ff165b9050949350505050565b3373ffffffffffffffffffffffffffffffffffffffff168373ffffffffffffffffffffffffffffffffffffffff160361049c576040517f08c379a0000000000000000000000000000000000000000000000000000000008152600401610493906122d1565b60405180910390fd5b600073ffffffffffffffffffffffffffffffffffffffff168373ffffffffffffffffffffffffffffffffffffffff160361050b576040517f08c379a00000000000000000000000000000000000000000000000000000000081526004016105029061233d565b60405180910390fd5b61055a3386868080601f016020809104026020016040519081016040528093929190818152602001838380828437600081840152601f19601f82011690508083019250505050505050856117b7565b1561059a576040517f08c379a0000000000000000000000000000000000000000000000000000000008152600401610591906123a9565b60405180910390fd5b6000803373ffffffffffffffffffffffffffffffffffffffff1673ffffffffffffffffffffffffffffffffffffffff16815260200190815260200160002085856040516105e892919061225b565b908152602001604051809103902060008473ffffffffffffffffffffffffffffffffffffffff1673ffffffffffffffffffffffffffffffffffffffff16815260200190815260200160002060009054906101000a900460ff1615610681576040517f08c379a000000000000000000000000000000000000000000000000000000000815260040161067890612415565b60405180910390fd5b6106cf3386868080601f016020809104026020016040519081016040528093929190818152602001838380828437600081840152601f19601f820116905080830192505050505050506118bc565b61070e576040517f08c379a000000000000000000000000000000000000000000000000000000000815260040161070590612481565b60405180910390fd5b60008282905011610754576040517f08c379a000000000000000000000000000000000000000000000000000000000815260040161074b906124ed565b60405180910390fd5b60016000803373ffffffffffffffffffffffffffffffffffffffff1673ffffffffffffffffffffffffffffffffffffffff16815260200190815260200160002086866040516107a492919061225b565b908152602001604051809103902060008573ffffffffffffffffffffffffffffffffffffffff1673ffffffffffffffffffffffffffffffffffffffff16815260200190815260200160002060006101000a81548160ff021916908315150217905550600160003373ffffffffffffffffffffffffffffffffffffffff1673ffffffffffffffffffffffffffffffffffffffff168152602001908152602001600020858560405161085592919061225b565b9081526020016040518091039020839080600181540180825580915050600190039060005260206000200160009091909190916101000a81548173ffffffffffffffffffffffffffffffffffffffff021916908373ffffffffffffffffffffffffffffffffffffffff1602179055508181600260003373ffffffffffffffffffffffffffffffffffffffff1673ffffffffffffffffffffffffffffffffffffffff168152602001908152602001600020878760405161091592919061225b565b908152602001604051809103902060008673ffffffffffffffffffffffffffffffffffffffff1673ffffffffffffffffffffffffffffffffffffffff168152602001908152602001600020918261096d9291906126f3565b50600360008473ffffffffffffffffffffffffffffffffffffffff1673ffffffffffffffffffffffffffffffffffffffff16815260200190815260200160002060405180604001604052803373ffffffffffffffffffffffffffffffffffffffff16815260200187878080601f016020809104026020016040519081016040528093929190818152602001838380828437600081840152601f19601f82011690508083019250505050505050815250908060018154018082558091505060019003906000526020600020906002020160009091909190915060008201518160000160006101000a81548173ffffffffffffffffffffffffffffffffffffffff021916908373ffffffffffffffffffffffffffffffffffffffff1602179055506020820151816001019081610aa1919061281e565b5050508273ffffffffffffffffffffffffffffffffffffffff163373ffffffffffffffffffffffffffffffffffffffff167f1374c56ac5373755358f44713ae3c7f3c5bde84cb5d9bcbddf8c15b647ed34038787604051610b0392919061291d565b60405180910390a38273ffffffffffffffffffffffffffffffffffffffff163373ffffffffffffffffffffffffffffffffffffffff167f80f68a3b61aa3566d75518c620b9c53779b1e18c4849564e9ef88902362b58a28787604051610b6a92919061291d565b60405180910390a35050505050565b6060600160008573ffffffffffffffffffffffffffffffffffffffff1673ffffffffffffffffffffffffffffffffffffffff1681526020019081526020016000208383604051610bca92919061225b565b9081526020016040518091039020805480602002602001604051908101604052809291908181526020018280548015610c5857602002820191906000526020600020905b8160009054906101000a900473ffffffffffffffffffffffffffffffffffffffff1673ffffffffffffffffffffffffffffffffffffffff1681526020019060010190808311610c0e575b505050505090509392505050565b600460009054906101000a900473ffffffffffffffffffffffffffffffffffffffff1681565b60608373ffffffffffffffffffffffffffffffffffffffff163373ffffffffffffffffffffffffffffffffffffffff161480610d6b57506000808573ffffffffffffffffffffffffffffffffffffffff1673ffffffffffffffffffffffffffffffffffffffff1681526020019081526020016000208383604051610d1192919061225b565b908152602001604051809103902060003373ffffffffffffffffffffffffffffffffffffffff1673ffffffffffffffffffffffffffffffffffffffff16815260200190815260200160002060009054906101000a900460ff165b610daa576040517f08c379a0000000000000000000000000000000000000000000000000000000008152600401610da19061298d565b60405180910390fd5b600260008573ffffffffffffffffffffffffffffffffffffffff1673ffffffffffffffffffffffffffffffffffffffff1681526020019081526020016000208383604051610df992919061225b565b908152602001604051809103902060003373ffffffffffffffffffffffffffffffffffffffff1673ffffffffffffffffffffffffffffffffffffffff1681526020019081526020016000208054610e4f906121eb565b80601f0160208091040260200160405190810160405280929190818152602001828054610e7b906121eb565b8015610ec85780601f10610e9d57610100808354040283529160200191610ec8565b820191906000526020600020905b815481529060010190602001808311610eab57829003601f168201915b505050505090509392505050565b6000803373ffffffffffffffffffffffffffffffffffffffff1673ffffffffffffffffffffffffffffffffffffffff1681526020019081526020016000208383604051610f2492919061225b565b908152602001604051809103902060008273ffffffffffffffffffffffffffffffffffffffff1673ffffffffffffffffffffffffffffffffffffffff16815260200190815260200160002060009054906101000a900460ff16610fbc576040517f08c379a0000000000000000000000000000000000000000000000000000000008152600401610fb3906129f9565b60405180910390fd5b60008060003373ffffffffffffffffffffffffffffffffffffffff1673ffffffffffffffffffffffffffffffffffffffff168152602001908152602001600020848460405161100c92919061225b565b908152602001604051809103902060008373ffffffffffffffffffffffffffffffffffffffff1673ffffffffffffffffffffffffffffffffffffffff16815260200190815260200160002060006101000a81548160ff021916908315150217905550600260003373ffffffffffffffffffffffffffffffffffffffff1673ffffffffffffffffffffffffffffffffffffffff16815260200190815260200160002083836040516110bd92919061225b565b908152602001604051809103902060008273ffffffffffffffffffffffffffffffffffffffff1673ffffffffffffffffffffffffffffffffffffffff168152602001908152602001600020600061111491906119c3565b6000600160003373ffffffffffffffffffffffffffffffffffffffff1673ffffffffffffffffffffffffffffffffffffffff168152602001908152602001600020848460405161116592919061225b565b9081526020016040518091039020905060005b81805490508110156112f5578273ffffffffffffffffffffffffffffffffffffffff168282815481106111ae576111ad612a19565b5b9060005260206000200160009054906101000a900473ffffffffffffffffffffffffffffffffffffffff1673ffffffffffffffffffffffffffffffffffffffff16036112e85781600183805490506112069190612a77565b8154811061121757611216612a19565b5b9060005260206000200160009054906101000a900473ffffffffffffffffffffffffffffffffffffffff1682828154811061125557611254612a19565b5b9060005260206000200160006101000a81548173ffffffffffffffffffffffffffffffffffffffff021916908373ffffffffffffffffffffffffffffffffffffffff160217905550818054806112ae576112ad612aab565b5b6001900381819060005260206000200160006101000a81549073ffffffffffffffffffffffffffffffffffffffff021916905590556112f5565b8080600101915050611178565b506000600360008473ffffffffffffffffffffffffffffffffffffffff1673ffffffffffffffffffffffffffffffffffffffff168152602001908152602001600020905060005b818054905081101561155e573373ffffffffffffffffffffffffffffffffffffffff1682828154811061137257611371612a19565b5b906000526020600020906002020160000160009054906101000a900473ffffffffffffffffffffffffffffffffffffffff1673ffffffffffffffffffffffffffffffffffffffff16148015611415575085856040516113d2929190612b0a565b60405180910390208282815481106113ed576113ec612a19565b5b906000526020600020906002020160010160405161140b9190612bbb565b6040518091039020145b1561155157816001838054905061142c9190612a77565b8154811061143d5761143c612a19565b5b906000526020600020906002020182828154811061145e5761145d612a19565b5b90600052602060002090600202016000820160009054906101000a900473ffffffffffffffffffffffffffffffffffffffff168160000160006101000a81548173ffffffffffffffffffffffffffffffffffffffff021916908373ffffffffffffffffffffffffffffffffffffffff160217905550600182018160010190816114e79190612be8565b50905050818054806114fc576114fb612aab565b5b6001900381819060005260206000209060020201600080820160006101000a81549073ffffffffffffffffffffffffffffffffffffffff02191690556001820160006115489190611a03565b5050905561155e565b808060010191505061133c565b508273ffffffffffffffffffffffffffffffffffffffff163373ffffffffffffffffffffffffffffffffffffffff167fa09219d7e8e0f494087bb0762109f3d8fa4bfc090a8a348a142cab14aa73e3f787876040516115be92919061291d565b60405180910390a35050505050565b61161b3385858080601f016020809104026020016040519081016040528093929190818152602001838380828437600081840152601f19601f820116905080830192505050505050506118bc565b61165a576040517f08c379a000000000000000000000000000000000000000000000000000000000815260040161165190612481565b60405180910390fd5b600082829050116116a0576040517f08c379a0000000000000000000000000000000000000000000000000000000008152600401611697906124ed565b60405180910390fd5b8181600260003373ffffffffffffffffffffffffffffffffffffffff1673ffffffffffffffffffffffffffffffffffffffff16815260200190815260200160002086866040516116f192919061225b565b908152602001604051809103902060003373ffffffffffffffffffffffffffffffffffffffff1673ffffffffffffffffffffffffffffffffffffffff16815260200190815260200160002091826117499291906126f3565b503373ffffffffffffffffffffffffffffffffffffffff163373ffffffffffffffffffffffffffffffffffffffff167f80f68a3b61aa3566d75518c620b9c53779b1e18c4849564e9ef88902362b58a286866040516117a992919061291d565b60405180910390a350505050565b600080600160008673ffffffffffffffffffffffffffffffffffffffff1673ffffffffffffffffffffffffffffffffffffffff168152602001908152602001600020846040516118079190612d01565b9081526020016040518091039020905060005b81805490508110156118ae578373ffffffffffffffffffffffffffffffffffffffff168282815481106118505761184f612a19565b5b9060005260206000200160009054906101000a900473ffffffffffffffffffffffffffffffffffffffff1673ffffffffffffffffffffffffffffffffffffffff16036118a1576001925050506118b5565b808060010191505061181a565b5060009150505b9392505050565b600080600460009054906101000a900473ffffffffffffffffffffffffffffffffffffffff1673ffffffffffffffffffffffffffffffffffffffff16631fc37922856040518263ffffffff1660e01b815260040161191a9190612d27565b600060405180830381865afa158015611937573d6000803e3d6000fd5b505050506040513d6000823e3d601f19601f820116820180604052508101906119609190613004565b50905060005b81518110156119b657838051906020012082828151811061198a57611989612a19565b5b602002602001015180519060200120036119a9576001925050506119bd565b8080600101915050611966565b5060009150505b92915050565b5080546119cf906121eb565b6000825580601f106119e15750611a00565b601f0160209004906000526020600020908101906119ff9190611a43565b5b50565b508054611a0f906121eb565b6000825580601f10611a215750611a40565b601f016020900490600052602060002090810190611a3f9190611a43565b5b50565b5b80821115611a5c576000816000905550600101611a44565b5090565b6000604051905090565b600080fd5b600080fd5b600073ffffffffffffffffffffffffffffffffffffffff82169050919050565b6000611a9f82611a74565b9050919050565b611aaf81611a94565b8114611aba57600080fd5b50565b600081359050611acc81611aa6565b92915050565b600060208284031215611ae857611ae7611a6a565b5b6000611af684828501611abd565b91505092915050565b600081519050919050565b600082825260208201905092915050565b6000819050602082019050919050565b611b3481611a94565b82525050565b600081519050919050565b600082825260208201905092915050565b60005b83811015611b74578082015181840152602081019050611b59565b60008484015250505050565b6000601f19601f8301169050919050565b6000611b9c82611b3a565b611ba68185611b45565b9350611bb6818560208601611b56565b611bbf81611b80565b840191505092915050565b6000604083016000830151611be26000860182611b2b565b5060208301518482036020860152611bfa8282611b91565b9150508091505092915050565b6000611c138383611bca565b905092915050565b6000602082019050919050565b6000611c3382611aff565b611c3d8185611b0a565b935083602082028501611c4f85611b1b565b8060005b85811015611c8b5784840389528151611c6c8582611c07565b9450611c7783611c1b565b925060208a01995050600181019050611c53565b50829750879550505050505092915050565b60006020820190508181036000830152611cb78184611c28565b905092915050565b600080fd5b600080fd5b600080fd5b60008083601f840112611ce457611ce3611cbf565b5b8235905067ffffffffffffffff811115611d0157611d00611cc4565b5b602083019150836001820283011115611d1d57611d1c611cc9565b5b9250929050565b60008060008060608587031215611d3e57611d3d611a6a565b5b6000611d4c87828801611abd565b945050602085013567ffffffffffffffff811115611d6d57611d6c611a6f565b5b611d7987828801611cce565b93509350506040611d8c87828801611abd565b91505092959194509250565b60008115159050919050565b611dad81611d98565b82525050565b6000602082019050611dc86000830184611da4565b92915050565b60008083601f840112611de457611de3611cbf565b5b8235905067ffffffffffffffff811115611e0157611e00611cc4565b5b602083019150836001820283011115611e1d57611e1c611cc9565b5b9250929050565b600080600080600060608688031215611e4057611e3f611a6a565b5b600086013567ffffffffffffffff811115611e5e57611e5d611a6f565b5b611e6a88828901611cce565b95509550506020611e7d88828901611abd565b935050604086013567ffffffffffffffff811115611e9e57611e9d611a6f565b5b611eaa88828901611dce565b92509250509295509295909350565b600080600060408486031215611ed257611ed1611a6a565b5b6000611ee086828701611abd565b935050602084013567ffffffffffffffff811115611f0157611f00611a6f565b5b611f0d86828701611cce565b92509250509250925092565b600081519050919050565b600082825260208201905092915050565b6000819050602082019050919050565b6000611f518383611b2b565b60208301905092915050565b6000602082019050919050565b6000611f7582611f19565b611f7f8185611f24565b9350611f8a83611f35565b8060005b83811015611fbb578151611fa28882611f45565b9750611fad83611f5d565b925050600181019050611f8e565b5085935050505092915050565b60006020820190508181036000830152611fe28184611f6a565b905092915050565b6000819050919050565b600061200f61200a61200584611a74565b611fea565b611a74565b9050919050565b600061202182611ff4565b9050919050565b600061203382612016565b9050919050565b61204381612028565b82525050565b600060208201905061205e600083018461203a565b92915050565b600081519050919050565b600082825260208201905092915050565b600061208b82612064565b612095818561206f565b93506120a5818560208601611b56565b6120ae81611b80565b840191505092915050565b600060208201905081810360008301526120d38184612080565b905092915050565b6000806000604084860312156120f4576120f3611a6a565b5b600084013567ffffffffffffffff81111561211257612111611a6f565b5b61211e86828701611cce565b9350935050602061213186828701611abd565b9150509250925092565b6000806000806040858703121561215557612154611a6a565b5b600085013567ffffffffffffffff81111561217357612172611a6f565b5b61217f87828801611cce565b9450945050602085013567ffffffffffffffff8111156121a2576121a1611a6f565b5b6121ae87828801611dce565b925092505092959194509250565b7f4e487b7100000000000000000000000000000000000000000000000000000000600052602260045260246000fd5b6000600282049050600182168061220357607f821691505b602082108103612216576122156121bc565b5b50919050565b600081905092915050565b82818337600083830152505050565b6000612242838561221c565b935061224f838584612227565b82840190509392505050565b6000612268828486612236565b91508190509392505050565b600082825260208201905092915050565b7f43616e6e6f74206772616e742061636365737320746f2073656c660000000000600082015250565b60006122bb601b83612274565b91506122c682612285565b602082019050919050565b600060208201905081810360008301526122ea816122ae565b9050919050565b7f496e76616c6964206163636573736f7200000000000000000000000000000000600082015250565b6000612327601083612274565b9150612332826122f1565b602082019050919050565b600060208201905081810360008301526123568161231a565b9050919050565b7f4163636573736f7220616c726561647920696e206c6973740000000000000000600082015250565b6000612393601883612274565b915061239e8261235d565b602082019050919050565b600060208201905081810360008301526123c281612386565b9050919050565b7f416c7265616479206772616e7465640000000000000000000000000000000000600082015250565b60006123ff600f83612274565b915061240a826123c9565b602082019050919050565b6000602082019050818103600083015261242e816123f2565b9050919050565b7f43494420646f6573206e6f7420657869737420666f72206f776e657200000000600082015250565b600061246b601c83612274565b915061247682612435565b602082019050919050565b6000602082019050818103600083015261249a8161245e565b9050919050565b7f456e63727970746564206b657920726571756972656400000000000000000000600082015250565b60006124d7601683612274565b91506124e2826124a1565b602082019050919050565b60006020820190508181036000830152612506816124ca565b9050919050565b600082905092915050565b7f4e487b7100000000000000000000000000000000000000000000000000000000600052604160045260246000fd5b60008190508160005260206000209050919050565b60006020601f8301049050919050565b600082821b905092915050565b6000600883026125a97fffffffffffffffffffffffffffffffffffffffffffffffffffffffffffffffff8261256c565b6125b3868361256c565b95508019841693508086168417925050509392505050565b6000819050919050565b60006125f06125eb6125e6846125cb565b611fea565b6125cb565b9050919050565b6000819050919050565b61260a836125d5565b61261e612616826125f7565b848454612579565b825550505050565b600090565b612633612626565b61263e818484612601565b505050565b5b818110156126625761265760008261262b565b600181019050612644565b5050565b601f8211156126a75761267881612547565b6126818461255c565b81016020851015612690578190505b6126a461269c8561255c565b830182612643565b50505b505050565b600082821c905092915050565b60006126ca600019846008026126ac565b1980831691505092915050565b60006126e383836126b9565b9150826002028217905092915050565b6126fd838361250d565b67ffffffffffffffff81111561271657612715612518565b5b61272082546121eb565b61272b828285612666565b6000601f83116001811461275a5760008415612748578287013590505b61275285826126d7565b8655506127ba565b601f19841661276886612547565b60005b828110156127905784890135825560018201915060208501945060208101905061276b565b868310156127ad57848901356127a9601f8916826126b9565b8355505b6001600288020188555050505b50505050505050565b60008190508160005260206000209050919050565b601f821115612819576127ea816127c3565b6127f38461255c565b81016020851015612802578190505b61281661280e8561255c565b830182612643565b50505b505050565b61282782611b3a565b67ffffffffffffffff8111156128405761283f612518565b5b61284a82546121eb565b6128558282856127d8565b600060209050601f8311600181146128885760008415612876578287015190505b61288085826126d7565b8655506128e8565b601f198416612896866127c3565b60005b828110156128be57848901518255600182019150602085019450602081019050612899565b868310156128db57848901516128d7601f8916826126b9565b8355505b6001600288020188555050505b505050505050565b60006128fc8385612274565b9350612909838584612227565b61291283611b80565b840190509392505050565b600060208201905081810360008301526129388184866128f0565b90509392505050565b7f4e6f7420617574686f72697a6564000000000000000000000000000000000000600082015250565b6000612977600e83612274565b915061298282612941565b602082019050919050565b600060208201905081810360008301526129a68161296a565b9050919050565b7f4e6f74206772616e746564000000000000000000000000000000000000000000600082015250565b60006129e3600b83612274565b91506129ee826129ad565b602082019050919050565b60006020820190508181036000830152612a12816129d6565b9050919050565b7f4e487b7100000000000000000000000000000000000000000000000000000000600052603260045260246000fd5b7f4e487b7100000000000000000000000000000000000000000000000000000000600052601160045260246000fd5b6000612a82826125cb565b9150612a8d836125cb565b9250828203905081811115612aa557612aa4612a48565b5b92915050565b7f4e487b7100000000000000000000000000000000000000000000000000000000600052603160045260246000fd5b600081905092915050565b6000612af18385612ada565b9350612afe838584612227565b82840190509392505050565b6000612b17828486612ae5565b91508190509392505050565b60008190508160005260206000209050919050565b60008154612b45816121eb565b612b4f8186612ada565b94506001821660008114612b6a5760018114612b7f57612bb2565b60ff1983168652811515820286019350612bb2565b612b8885612b23565b60005b83811015612baa57815481890152600182019150602081019050612b8b565b838801955050505b50505092915050565b6000612bc78284612b38565b915081905092915050565b600081549050612be1816121eb565b9050919050565b818103612bf6575050612cce565b612bff82612bd2565b67ffffffffffffffff811115612c1857612c17612518565b5b612c2282546121eb565b612c2d8282856127d8565b6000601f831160018114612c5c5760008415612c4a578287015490505b612c5485826126d7565b865550612cc7565b601f198416612c6a876127c3565b9650612c75866127c3565b60005b82811015612c9d57848901548255600182019150600185019450602081019050612c78565b86831015612cba5784890154612cb6601f8916826126b9565b8355505b6001600288020188555050505b5050505050505b565b6000612cdb82611b3a565b612ce5818561221c565b9350612cf5818560208601611b56565b80840191505092915050565b6000612d0d8284612cd0565b915081905092915050565b612d2181611a94565b82525050565b6000602082019050612d3c6000830184612d18565b92915050565b612d4b82611b80565b810181811067ffffffffffffffff82111715612d6a57612d69612518565b5b80604052505050565b6000612d7d611a60565b9050612d898282612d42565b919050565b600067ffffffffffffffff821115612da957612da8612518565b5b602082029050602081019050919050565b600080fd5b600067ffffffffffffffff821115612dda57612dd9612518565b5b612de382611b80565b9050602081019050919050565b6000612e03612dfe84612dbf565b612d73565b905082815260208101848484011115612e1f57612e1e612dba565b5b612e2a848285611b56565b509392505050565b600082601f830112612e4757612e46611cbf565b5b8151612e57848260208601612df0565b91505092915050565b6000612e73612e6e84612d8e565b612d73565b90508083825260208201905060208402830185811115612e9657612e95611cc9565b5b835b81811015612edd57805167ffffffffffffffff811115612ebb57612eba611cbf565b5b808601612ec88982612e32565b85526020850194505050602081019050612e98565b5050509392505050565b600082601f830112612efc57612efb611cbf565b5b8151612f0c848260208601612e60565b91505092915050565b600067ffffffffffffffff821115612f3057612f2f612518565b5b602082029050602081019050919050565b612f4a816125cb565b8114612f5557600080fd5b50565b600081519050612f6781612f41565b92915050565b6000612f80612f7b84612f15565b612d73565b90508083825260208201905060208402830185811115612fa357612fa2611cc9565b5b835b81811015612fcc5780612fb88882612f58565b845260208401935050602081019050612fa5565b5050509392505050565b600082601f830112612feb57612fea611cbf565b5b8151612ffb848260208601612f6d565b91505092915050565b6000806040838503121561301b5761301a611a6a565b5b600083015167ffffffffffffffff81111561303957613038611a6f565b5b61304585828601612ee7565b925050602083015167ffffffffffffffff81111561306657613065611a6f565b5b61307285828601612fd6565b915050925092905056fea26469706673582212206f429ef14d6a216c552f7ec8787f8c1ab799343a0c517977342f7de59c28233a64736f6c634300081c0033",
  "linkReferences": {},
  "deployedLinkReferences": {}
}