{
  "_format": "hh-sol-artifact-1",
  "contractName": "StorageRegistry",
  "sourceName": "contracts/StorageRegistry.sol",
  "abi": [
    {
      "anonymous": false,
      "inputs": [
        {
          "indexed": true,
          "internalType": "address",
          "name": "user",
          "type": "address"
        },
        {
          "indexed": false,
          "internalType": "string",
          "name": "cid",
          "type": "string"
        }
      ],
      "name": "FileDeleted",
      "type": "event"
    },
    {
      "anonymous": false,
      "inputs": [
        {
          "indexed": true,
          "internalType": "address",
          "name": "user",
          "type": "address"
        },
        {
          "indexed": false,
          "internalType": "string",
          "name": "cid",
          "type": "string"
        },
        {
          "indexed": false,
          "internalType": "uint256",
          "name": "timestamp",
          "type": "uint256"
        }
      ],
      "name": "FileStored",
      "type": "event"
    },
    {
      "anonymous": false,
      "inputs": [
        {
          "indexed": true,
          "internalType": "address",
          "name": "user",
          "type": "address"
        },
        {
          "indexed": false,
          "internalType": "string",
          "name": "oldCid",
          "type": "string"
        },
        {
          "indexed": false,
          "internalType": "string",
          "name": "newCid",
          "type": "string"
        },
        {
          "indexed": false,
          "internalType": "uint256",
          "name": "timestamp",
          "type": "uint256"
        }
      ],
      "name": "FileUpdated",
      "type": "event"
    },
    {
      "inputs": [
        {
          "internalType": "string",
          "name": "cid",
          "type": "string"
        }
      ],
      "name": "deleteFile",
      "outputs": [],
      "stateMutability": "nonpayable",
      "type": "function"
    },
    {
      "inputs": [
        {
          "internalType": "address",
          "name": "user",
          "type": "address"
        }
      ],
      "name": "getUserFileCount",
      "outputs": [
        {
          "internalType": "uint256",
          "name": "",
          "type": "uint256"
        }
      ],
      "stateMutability": "view",
      "type": "function"
    },
    {
      "inputs": [
        {
          "internalType": "address",
          "name": "user",
          "type": "address"
        }
      ],
      "name": "getUserFiles",
      "outputs": [
        {
          "internalType": "string[]",
          "name": "cids",
          "type": "string[]"
        },
        {
          "internalType": "uint256[]",
          "name": "timestamps",
          "type": "uint256[]"
        }
      ],
      "stateMutability": "view",
      "type": "function"
    },
    {
      "inputs": [
        {
          "internalType": "string",
          "name": "cid",
          "type": "string"
        }
      ],
      "name": "storeFile",
      "outputs": [],
      "stateMutability": "nonpayable",
      "type": "function"
    },
    {
      "inputs": [
        {
          "internalType": "string",
          "name": "oldCid",
          "type": "string"
        },
        {
          "internalType": "string",
          "name": "newCid",
          "type": "string"
        }
      ],
      "name": "updateFile",
      "outputs": [],
      "stateMutability": "nonpayable",
      "type": "function"
    }
  ],
  "bytecode": "0x6080604052348015600f57600080fd5b50611c388061001f6000396000f3fe608060405234801561001057600080fd5b50600436106100575760003560e01c80631fc379221461005c578063464ed51c1461008d578063a9910054146100a9578063e4e10b36146100c5578063e602406a146100f5575b600080fd5b61007660048036038101906100719190610f45565b610111565b60405161008492919061118c565b60405180910390f35b6100a760048036038101906100a29190611228565b61039d565b005b6100c360048036038101906100be91906112a9565b610731565b005b6100df60048036038101906100da9190610f45565b610b74565b6040516100ec9190611305565b60405180910390f35b61010f600480360381019061010a91906112a9565b610bbf565b005b60608060008060008573ffffffffffffffffffffffffffffffffffffffff1673ffffffffffffffffffffffffffffffffffffffff1681526020019081526020016000208054905090508067ffffffffffffffff81111561017457610173611320565b5b6040519080825280602002602001820160405280156101a757816020015b60608152602001906001900390816101925790505b5092508067ffffffffffffffff8111156101c4576101c3611320565b5b6040519080825280602002602001820160405280156101f25781602001602082028036833780820191505090505b50915060005b81811015610396576000808673ffffffffffffffffffffffffffffffffffffffff1673ffffffffffffffffffffffffffffffffffffffff16815260200190815260200160002081815481106102505761024f61134f565b5b9060005260206000209060020201600001805461026c906113ad565b80601f0160208091040260200160405190810160405280929190818152602001828054610298906113ad565b80156102e55780601f106102ba576101008083540402835291602001916102e5565b820191906000526020600020905b8154815290600101906020018083116102c857829003601f168201915b50505050508482815181106102fd576102fc61134f565b5b60200260200101819052506000808673ffffffffffffffffffffffffffffffffffffffff1673ffffffffffffffffffffffffffffffffffffffff16815260200190815260200160002081815481106103585761035761134f565b5b90600052602060002090600202016001015483828151811061037d5761037c61134f565b5b60200260200101818152505080806001019150506101f8565b5050915091565b600082829050116103e3576040517f08c379a00000000000000000000000000000000000000000000000000000000081526004016103da9061143b565b60405180910390fd5b6000600160003373ffffffffffffffffffffffffffffffffffffffff1673ffffffffffffffffffffffffffffffffffffffff168152602001908152602001600020858560405161043492919061149a565b908152602001604051809103902054905060008111610488576040517f08c379a000000000000000000000000000000000000000000000000000000000815260040161047f906114ff565b60405180910390fd5b6000600160003373ffffffffffffffffffffffffffffffffffffffff1673ffffffffffffffffffffffffffffffffffffffff16815260200190815260200160002084846040516104d992919061149a565b90815260200160405180910390205414610528576040517f08c379a000000000000000000000000000000000000000000000000000000000815260040161051f9061156b565b60405180910390fd5b600060018261053791906115ba565b905083836000803373ffffffffffffffffffffffffffffffffffffffff1673ffffffffffffffffffffffffffffffffffffffff168152602001908152602001600020838154811061058b5761058a61134f565b5b906000526020600020906002020160000191826105a99291906117a5565b50426000803373ffffffffffffffffffffffffffffffffffffffff1673ffffffffffffffffffffffffffffffffffffffff16815260200190815260200160002082815481106105fb576105fa61134f565b5b90600052602060002090600202016001018190555081600160003373ffffffffffffffffffffffffffffffffffffffff1673ffffffffffffffffffffffffffffffffffffffff168152602001908152602001600020858560405161066092919061149a565b908152602001604051809103902081905550600160003373ffffffffffffffffffffffffffffffffffffffff1673ffffffffffffffffffffffffffffffffffffffff16815260200190815260200160002086866040516106c192919061149a565b9081526020016040518091039020600090553373ffffffffffffffffffffffffffffffffffffffff167f11f3e2cffd7f20d8173270456baa3bb52ebafd4197ad00ac3bf91d396d0fbe9687878787426040516107219594939291906118a2565b60405180910390a2505050505050565b6000600160003373ffffffffffffffffffffffffffffffffffffffff1673ffffffffffffffffffffffffffffffffffffffff168152602001908152602001600020838360405161078292919061149a565b9081526020016040518091039020549050600081116107d6576040517f08c379a00000000000000000000000000000000000000000000000000000000081526004016107cd90611937565b60405180910390fd5b60006001826107e591906115ba565b9050600060016000803373ffffffffffffffffffffffffffffffffffffffff1673ffffffffffffffffffffffffffffffffffffffff1681526020019081526020016000208054905061083791906115ba565b9050808214610a3d5760008060003373ffffffffffffffffffffffffffffffffffffffff1673ffffffffffffffffffffffffffffffffffffffff16815260200190815260200160002082815481106108925761089161134f565b5b90600052602060002090600202016040518060400160405290816000820180546108bb906113ad565b80601f01602080910402602001604051908101604052809291908181526020018280546108e7906113ad565b80156109345780601f1061090957610100808354040283529160200191610934565b820191906000526020600020905b81548152906001019060200180831161091757829003601f168201915b505050505081526020016001820154815250509050806000803373ffffffffffffffffffffffffffffffffffffffff1673ffffffffffffffffffffffffffffffffffffffff168152602001908152602001600020848154811061099a5761099961134f565b5b906000526020600020906002020160008201518160000190816109bd9190611957565b50602082015181600101559050506001836109d89190611a29565b600160003373ffffffffffffffffffffffffffffffffffffffff1673ffffffffffffffffffffffffffffffffffffffff1681526020019081526020016000208260000151604051610a299190611a8e565b908152602001604051809103902081905550505b6000803373ffffffffffffffffffffffffffffffffffffffff1673ffffffffffffffffffffffffffffffffffffffff168152602001908152602001600020805480610a8b57610a8a611aa5565b5b600190038181906000526020600020906002020160008082016000610ab09190610e80565b600182016000905550509055600160003373ffffffffffffffffffffffffffffffffffffffff1673ffffffffffffffffffffffffffffffffffffffff1681526020019081526020016000208585604051610b0b92919061149a565b9081526020016040518091039020600090553373ffffffffffffffffffffffffffffffffffffffff167f14a51c77a00d5c4c3ccc7a4df74f169088c4d4d04859d176729645e53c7b895c8686604051610b65929190611ad4565b60405180910390a25050505050565b60008060008373ffffffffffffffffffffffffffffffffffffffff1673ffffffffffffffffffffffffffffffffffffffff168152602001908152602001600020805490509050919050565b60008282905011610c05576040517f08c379a0000000000000000000000000000000000000000000000000000000008152600401610bfc90611b44565b60405180910390fd5b6000600160003373ffffffffffffffffffffffffffffffffffffffff1673ffffffffffffffffffffffffffffffffffffffff1681526020019081526020016000208383604051610c5692919061149a565b90815260200160405180910390205414610ca5576040517f08c379a0000000000000000000000000000000000000000000000000000000008152600401610c9c90611bb0565b60405180910390fd5b6000803373ffffffffffffffffffffffffffffffffffffffff1673ffffffffffffffffffffffffffffffffffffffff168152602001908152602001600020604051806040016040528084848080601f016020809104026020016040519081016040528093929190818152602001838380828437600081840152601f19601f8201169050808301925050505050505081526020014281525090806001815401808255809150506001900390600052602060002090600202016000909190919091506000820151816000019081610d7a9190611957565b506020820151816001015550506000803373ffffffffffffffffffffffffffffffffffffffff1673ffffffffffffffffffffffffffffffffffffffff16815260200190815260200160002080549050600160003373ffffffffffffffffffffffffffffffffffffffff1673ffffffffffffffffffffffffffffffffffffffff1681526020019081526020016000208383604051610e1892919061149a565b9081526020016040518091039020819055503373ffffffffffffffffffffffffffffffffffffffff167fc52ddae7ac700dfb77b2e801fc714082d93ed8873f8a560551e7112146219775838342604051610e7493929190611bd0565b60405180910390a25050565b508054610e8c906113ad565b6000825580601f10610e9e5750610ebd565b601f016020900490600052602060002090810190610ebc9190610ec0565b5b50565b5b80821115610ed9576000816000905550600101610ec1565b5090565b600080fd5b600080fd5b600073ffffffffffffffffffffffffffffffffffffffff82169050919050565b6000610f1282610ee7565b9050919050565b610f2281610f07565b8114610f2d57600080fd5b50565b600081359050610f3f81610f19565b92915050565b600060208284031215610f5b57610f5a610edd565b5b6000610f6984828501610f30565b91505092915050565b600081519050919050565b600082825260208201905092915050565b6000819050602082019050919050565b600081519050919050565b600082825260208201905092915050565b60005b83811015610fd8578082015181840152602081019050610fbd565b60008484015250505050565b6000601f19601f8301169050919050565b600061100082610f9e565b61100a8185610fa9565b935061101a818560208601610fba565b61102381610fe4565b840191505092915050565b600061103a8383610ff5565b905092915050565b6000602082019050919050565b600061105a82610f72565b6110648185610f7d565b93508360208202850161107685610f8e565b8060005b858110156110b25784840389528151611093858261102e565b945061109e83611042565b925060208a0199505060018101905061107a565b50829750879550505050505092915050565b600081519050919050565b600082825260208201905092915050565b6000819050602082019050919050565b6000819050919050565b611103816110f0565b82525050565b600061111583836110fa565b60208301905092915050565b6000602082019050919050565b6000611139826110c4565b61114381856110cf565b935061114e836110e0565b8060005b8381101561117f5781516111668882611109565b975061117183611121565b925050600181019050611152565b5085935050505092915050565b600060408201905081810360008301526111a6818561104f565b905081810360208301526111ba818461112e565b90509392505050565b600080fd5b600080fd5b600080fd5b60008083601f8401126111e8576111e76111c3565b5b8235905067ffffffffffffffff811115611205576112046111c8565b5b602083019150836001820283011115611221576112206111cd565b5b9250929050565b6000806000806040858703121561124257611241610edd565b5b600085013567ffffffffffffffff8111156112605761125f610ee2565b5b61126c878288016111d2565b9450945050602085013567ffffffffffffffff81111561128f5761128e610ee2565b5b61129b878288016111d2565b925092505092959194509250565b600080602083850312156112c0576112bf610edd565b5b600083013567ffffffffffffffff8111156112de576112dd610ee2565b5b6112ea858286016111d2565b92509250509250929050565b6112ff816110f0565b82525050565b600060208201905061131a60008301846112f6565b92915050565b7f4e487b7100000000000000000000000000000000000000000000000000000000600052604160045260246000fd5b7f4e487b7100000000000000000000000000000000000000000000000000000000600052603260045260246000fd5b7f4e487b7100000000000000000000000000000000000000000000000000000000600052602260045260246000fd5b600060028204905060018216806113c557607f821691505b6020821081036113d8576113d761137e565b5b50919050565b600082825260208201905092915050565b7f4e65772043494420726571756972656400000000000000000000000000000000600082015250565b60006114256010836113de565b9150611430826113ef565b602082019050919050565b6000602082019050818103600083015261145481611418565b9050919050565b600081905092915050565b82818337600083830152505050565b6000611481838561145b565b935061148e838584611466565b82840190509392505050565b60006114a7828486611475565b91508190509392505050565b7f4f6c6420434944206e6f7420666f756e64000000000000000000000000000000600082015250565b60006114e96011836113de565b91506114f4826114b3565b602082019050919050565b60006020820190508181036000830152611518816114dc565b9050919050565b7f4e65772043494420616c72656164792065786973747300000000000000000000600082015250565b60006115556016836113de565b91506115608261151f565b602082019050919050565b6000602082019050818103600083015261158481611548565b9050919050565b7f4e487b7100000000000000000000000000000000000000000000000000000000600052601160045260246000fd5b60006115c5826110f0565b91506115d0836110f0565b92508282039050818111156115e8576115e761158b565b5b92915050565b600082905092915050565b60008190508160005260206000209050919050565b60006020601f8301049050919050565b600082821b905092915050565b60006008830261165b7fffffffffffffffffffffffffffffffffffffffffffffffffffffffffffffffff8261161e565b611665868361161e565b95508019841693508086168417925050509392505050565b6000819050919050565b60006116a261169d611698846110f0565b61167d565b6110f0565b9050919050565b6000819050919050565b6116bc83611687565b6116d06116c8826116a9565b84845461162b565b825550505050565b600090565b6116e56116d8565b6116f08184846116b3565b505050565b5b81811015611714576117096000826116dd565b6001810190506116f6565b5050565b601f8211156117595761172a816115f9565b6117338461160e565b81016020851015611742578190505b61175661174e8561160e565b8301826116f5565b50505b505050565b600082821c905092915050565b600061177c6000198460080261175e565b1980831691505092915050565b6000611795838361176b565b9150826002028217905092915050565b6117af83836115ee565b67ffffffffffffffff8111156117c8576117c7611320565b5b6117d282546113ad565b6117dd828285611718565b6000601f83116001811461180c57600084156117fa578287013590505b6118048582611789565b86555061186c565b601f19841661181a866115f9565b60005b828110156118425784890135825560018201915060208501945060208101905061181d565b8683101561185f578489013561185b601f89168261176b565b8355505b6001600288020188555050505b50505050505050565b600061188183856113de565b935061188e838584611466565b61189783610fe4565b840190509392505050565b600060608201905081810360008301526118bd818789611875565b905081810360208301526118d2818587611875565b90506118e160408301846112f6565b9695505050505050565b7f434944206e6f7420666f756e6400000000000000000000000000000000000000600082015250565b6000611921600d836113de565b915061192c826118eb565b602082019050919050565b6000602082019050818103600083015261195081611914565b9050919050565b61196082610f9e565b67ffffffffffffffff81111561197957611978611320565b5b61198382546113ad565b61198e828285611718565b600060209050601f8311600181146119c157600084156119af578287015190505b6119b98582611789565b865550611a21565b601f1984166119cf866115f9565b60005b828110156119f7578489015182556001820191506020850194506020810190506119d2565b86831015611a145784890151611a10601f89168261176b565b8355505b6001600288020188555050505b505050505050565b6000611a34826110f0565b9150611a3f836110f0565b9250828201905080821115611a5757611a5661158b565b5b92915050565b6000611a6882610f9e565b611a72818561145b565b9350611a82818560208601610fba565b80840191505092915050565b6000611a9a8284611a5d565b915081905092915050565b7f4e487b7100000000000000000000000000000000000000000000000000000000600052603160045260246000fd5b60006020820190508181036000830152611aef818486611875565b90509392505050565b7f4349442072657175697265640000000000000000000000000000000000000000600082015250565b6000611b2e600c836113de565b9150611b3982611af8565b602082019050919050565b60006020820190508181036000830152611b5d81611b21565b9050919050565b7f43494420616c7265616479206578697374730000000000000000000000000000600082015250565b6000611b9a6012836113de565b9150611ba582611b64565b602082019050919050565b60006020820190508181036000830152611bc981611b8d565b9050919050565b60006040820190508181036000830152611beb818587611875565b9050611bfa60208301846112f6565b94935050505056fea26469706673582212201638cc639093c2909992d806b579b29a0662e582882b77b125ef0fa7d6d5a83664736f6c634300081c0033",
  "linkReferences": {},
  "deployedLinkReferences": {}
}